:040000000128FC2FA8
:100E1E00A33022009700080016302100970008002A
:100E2E007108F8007008F70008007108FA007008E1
:100E3E00F9000800703021009900980122009601F7
:100E4E000800013021009D0093309E009B019C0103
:100E5E000800FF3020009B009A01911004309C0086
:100E6E0008008B10210015170030F0000030F10043
:100E7E0017270B1608007D27212713270F27282752
:100E8E004C2730273827582708003C302500930080
:100E9E009501803094000130960092017F309100D0
:100EAE00080021001508C03917389500B23020000F
:100EBE009500B230F0007008FB000B1108007108AD
:100ECE00F3007008F200F336F20CF336F20C7208EF
:100EDE002500910070080339F2000430F235890BB9
:100EEE00752F1308CF3972049300080022008C016D
:100EFE003B3021008C00113023008C0024008C012B
:100F0E002100951722009D01270093109210911039
:100F1E000030F0000030F1001C270800F3007308C9
:100F2E00F200F20DF20D21001D08720683397206D1
:100F3E009D001D140330F200F20BA32F21009D140F
:100F4E009D18A72F1C08F1001B08F000080042276F
:100F5E00FD01F430F0000130F1006627BA2FFD01DB
:100F6E00FD0ABA2FC9277D08003A0319B62F013A98
:100F7E000319B92F033A0319BA2F013A0319BA2FDD
:100F8E00BA2FBA2FF501F601003095277108F60039
:100F9E007008F500153076027D30031975020318BE
:100FAE00DA2FFC01F62F153076027D30031975020B
:100FBE000318E82F9C30760241300319750203188E
:100FCE00EB2FFC01FC0AF62F9C3076024130031900
:100FDE007502031CF62F0230F4007408FC007C0826
:100FEE007C3A0319FB2FFB2F0800FC01FD012000AA
:020FFE00AE2F14
:020000040001F9
:04000E00A4EFFFDE7E
:00000001FF
